:100000000C9446000C9465000C9465000C946500FB
:100010000C9465000C9465000C9465000C946500CC
:100020000C9465000C9465000C9465000C946500BC
:100030000C9465000C9465000C9465000C946500AC
:100040000C9465000C9465000C9465000C9465009C
:100050000C9465000C9465000C9465000C9465008C
:100060000C9465000C9465000C9465000C9465007C
:100070000C9465000C9465000C9465000C9465006C
:100080000C9465000C9465000C94650011241FBE4F
:10009000CFEFD0E4DEBFCDBF11E0A0E0B1E0E0E8FB
:1000A000F2E000E00BBF02C007900D92A031B10753
:1000B000D9F721E0A0E1B1E001C01D92A231B20761
:1000C000E1F70E9425010C943E010C940000CF93AF
:1000D000DF9300D01F92CDB7DEB789837B836A831D
:1000E00089818A3031F48A819B81BC018DE00E9434
:1000F000670080EC90E0FC018081882F90E08072A6
:100100009927892BB1F386EC90E02981FC012083AB
:1001100080E090E00F900F900F90DF91CF910895C5
:10012000CF93DF9300D01F92CDB7DEB78B831A82B7
:10013000198227C088E290E028E0FC01208388E251
:1001400090E028E230E0F9012081422F2B81222F1C
:1001500030E0098002C0359527950A94E2F72170B6
:10016000242BFC01208388E290E028E230E0F901B2
:1001700020812260FC01208389819A8101969A83E3
:10018000898389819A810897ACF288E290E028E21D
:1001900030E0F90120812460FC01208388E290E0B6
:1001A000FC01108200000F900F900F90DF91CF9113
:1001B0000895CF93DF9300D0CDB7DEB780E290E013
:1001C000FC018081882F90E08170992721E0892BA4
:1001D00009F020E0298380E290E0FC018081809595
:1001E00082708A838091100190911101892B11F501
:1001F00099818A818923882319F010920E011FC0EA
:100200008981282F30E090910E0181E09F3F09F411
:1002100080E0882F90E082239323892B31F0809116
:100220000E018F5F80930E010AC080910E010E9423
:10023000900005C010921101109210010000000002
:100240000F900F90DF91CF910895CF93DF93CDB7AB
:10025000DEB787E290E02FEFFC01208388E290E098
:10026000FC01108281E290E0FC01108282E290E0C9
:100270002FEFFC0120830E94D900FDCFF894FFCF1F
:100280000000000200000000670000000000F00015
:00000001FF
