:100000000C9446000C9465000C9465000C946500FB
:100010000C9465000C9465000C9465000C946500CC
:100020000C9465000C9465000C9465000C946500BC
:100030000C9465000C940C010C9465000C94650004
:100040000C9465000C9465000C9465000C9465009C
:100050000C9465000C9465000C9465000C9465008C
:100060000C9465000C9465000C9465000C9465007C
:100070000C9465000C9465000C9465000C9465006C
:100080000C9465000C9465000C94650011241FBE4F
:10009000CFEFD0E4DEBFCDBF11E0A0E0B1E0E6E4F9
:1000A000FBE000E00BBF02C007900D92AA31B10740
:1000B000D9F721E0AAE1B1E001C01D92AC34B2074A
:1000C000E1F70E94C7030C94A1050C940000CF93A4
:1000D000DF9300D01F92CDB7DEB789837B836A831D
:1000E00089818A3031F48A819B81BC018DE00E9434
:1000F000670080EC90E0FC018081882F90E08072A6
:100100009927892BB1F386EC90E02981FC012083AB
:1001100080E090E00F900F900F90DF91CF910895C5
:10012000CF93DF9300D000D0CDB7DEB769837A8359
:100130008B839C8389819A81AB81BC8180930E01E2
:1001400090930F01A0931001B093110180910E01C3
:1001500090910F01A0911001B091110180931B01AA
:1001600090931C01A0931D01B0931E0100000F90FD
:100170000F900F900F90DF91CF910895CF93DF9361
:10018000CDB7DEB781E890E02BE0FC01208388E862
:1001900090E02DE730E0FC01318320838FE690E092
:1001A00022E0FC01208384E890E0FC0111821082AF
:1001B00080910E0190910F01A0911001B091110159
:1001C00080931B0190931C01A0931D01B0931E010D
:1001D0008FE590E02FE530E0F90120812068FC01F7
:1001E00020830000DF91CF910895CF93DF93CDB7A7
:1001F000DEB781E890E0FC0110820000DF91CF9132
:100200000895CF93DF93CDB7DEB781E080931A01D5
:100210000000DF91CF9108951F920F9200905F0030
:100220000F92112400905B000F922F933F934F93F6
:100230005F936F937F938F939F93AF93BF93EF934E
:10024000FF93CF93DF93CDB7DEB780911B019091E1
:100250001C01A0911D01B0911E010197A109B109D6
:1002600080931B0190931C01A0931D01B0931E016C
:1002700080911B0190911C01A0911D01B0911E0164
:10028000892B8A2B8B2B91F40E94010180910E0106
:1002900090910F01A0911001B091110180931B0169
:1002A00090931C01A0931D01B0931E010000DF91EB
:1002B000CF91FF91EF91BF91AF919F918F917F91DE
:1002C0006F915F914F913F912F910F9000925B0042
:1002D0000F9000925F000F901F901895CF93DF93BF
:1002E000CDB7DEB72C970FB6F894DEBF0FBECDBFEB
:1002F0006D837E838F83988729873A874B875C87B6
:100300008D819E81AF81B88529853A854B855C8535
:10031000BC01CD010E947F05DC01CB0189839A835A
:10032000AB83BC8389819A81AB81BC81892B8A2B69
:100330008B2B29F489859A85AB85BC8511C089856D
:100340009A85AB85BC858D839E83AF83B887898171
:100350009A81AB81BC8189879A87AB87BC87D0CFD4
:10036000BC01CD012C960FB6F894DEBF0FBECDBFF9
:10037000DF91CF910895CF93DF9300D01F92CDB737
:10038000DEB78B831A82198227C088E290E028E0CA
:10039000FC01208388E290E028E230E0F90120812E
:1003A000422F2B81222F30E0098002C035952795FE
:1003B0000A94E2F72170242BFC01208388E290E06C
:1003C00028E230E0F90120812260FC01208389814C
:1003D0009A8101969A83898389819A810897ACF2E0
:1003E00088E290E028E230E0F90120812460FC01FD
:1003F000208388E290E0FC01108200000F900F90B3
:100400000F90DF91CF910895CF93DF9300D01F928B
:10041000CDB7DEB79B838A8380E290E0FC018081C8
:100420008095837089838A819B818230910509F44C
:1004300061C0833091052CF4009751F00197E1F1F0
:1004400080C08330910531F1049709F471C079C0FF
:1004500080911F01882319F480E00E94BB018981EB
:10046000833029F483E090E09B838A836EC0898186
:10047000823029F481E090E09B838A8366C0898181
:10048000813029F482E090E09B838A835EC01B82E6
:100490001A825BC080911F01882321F481E0809340
:1004A0001F0105C010921F0180E00E94BB0184E083
:1004B00090E09B838A8349C080911F01833021F49F
:1004C00081E080931F0109C080911F01882329F0DA
:1004D00080911F018F5F80931F018981833029F4F0
:1004E00083E090E09B838A8330C084E090E09B832C
:1004F0008A832BC080911F01813021F483E0809397
:100500001F0109C080911F01882329F080911F01DC
:10051000815080931F018981833029F483E090E02A
:100520009B838A8312C084E090E09B838A830DC002
:100530008981813049F08981823031F01B821A82B1
:1005400003C01B821A8201C000008A819B810F9028
:100550000F900F90DF91CF910895CF93DF9300D04C
:10056000CDB7DEB79A83898389819A8182309105DC
:1005700031F1833091052CF4009749F0019799F0FF
:1005800040C08330910539F1049789F13AC08091D8
:100590001F01813019F481E80E94BB0181E090E0E5
:1005A0009A83898331C080911F01813019F482E4DC
:1005B0000E94BB0182E090E09A83898325C08091EC
:1005C0001F01813019F484E20E94BB0183E090E0B6
:1005D0009A83898319C080911F01813019F488E1C1
:1005E0000E94BB0184E090E09A8389830DC08091D2
:1005F0001F01813019F480E00E94BB011A82198228
:1006000003C01A821982000089819A810F900F908D
:10061000DF91CF910895CF93DF9300D0CDB7DEB7B0
:100620009A83898389819A818230910531F183305F
:1006300091052CF4009749F0019799F040C0833060
:10064000910539F1049789F13AC080911F018230F8
:1006500019F48FEF0E94BB0181E090E09A838983B7
:1006600031C080911F01823019F48AEA0E94BB01D7
:1006700082E090E09A83898325C080911F018230B7
:1006800019F488E80E94BB0183E090E09A83898393
:1006900019C080911F01823019F480E80E94BB01CB
:1006A00084E090E09A8389830DC080911F0182309D
:1006B00019F480E00E94BB011A82198203C01A82D9
:1006C0001982000089819A810F900F90DF91CF915C
:1006D0000895CF93DF9300D0CDB7DEB79A83898397
:1006E00089819A818230910531F1833091052CF412
:1006F000009749F0019799F040C08330910539F196
:10070000049789F13AC080911F01833019F480EC7D
:100710000E94BB0181E090E09A83898331C080917F
:100720001F01833019F488E10E94BB0182E090E050
:100730009A83898325C080911F01833019F483E057
:100740000E94BB0183E090E09A83898319C0809165
:100750001F01833019F486E00E94BB0184E090E021
:100760009A8389830DC080911F01833019F480E63C
:100770000E94BB011A82198203C01A8219820000EA
:1007800089819A810F900F90DF91CF9108950F93F7
:100790001F93CF93DF93CDB7DEB761970FB6F89471
:1007A000DEBF0FBECDBF87E290E02FEFFC012083BC
:1007B00088E290E0FC01108281E290E0FC0110826E
:1007C00082E290E02FEFFC01208388E0E2E1F1E09B
:1007D000DE011A9601900D928A95E1F784E090E08F
:1007E00098878F838FEF89878985809320018EE199
:1007F00090E0A0E0B0E08093210190932201A093CB
:100800002301B09324018091210190912201A091B4
:100810002301B09124018093250190932601A09398
:100820002701B093280184E092E090932A018093FD
:100830002901898580932B0184E690E0A0E0B0E057
:1008400080932C0190932D01A0932E01B0932F0142
:1008500080912C0190912D01A0912E01B0912F013A
:100860008093300190933101A0933201B093330112
:100870008DEA92E0909335018093340189858093CD
:10088000360184E690E0A0E0B0E0809337019093D9
:100890003801A0933901B0933A01809137019091CA
:1008A0003801A0913901B0913A0180933B019093B6
:1008B0003C01A0933D01B0933E018BE093E0909307
:1008C000400180933F0189858093410184E690E057
:1008D000A0E0B0E08093420190934301A0934401D3
:1008E000B09345018091420190914301A091440150
:1008F000B09145018093460190934701A093480130
:10090000B093490189E693E090934B0180934A01AB
:100910008A859B85FC0181819281A381B4818B832F
:100920009C83AD83BE831A82198225C089819A81F6
:10093000880F991F9E012F5F3F4F820F931F0996CB
:10094000FC0180819181FC012181328143815481AC
:100950008B819C81AD81BE81BC01CD010E946E0165
:10096000DC01CB018B839C83AD83BE8389819A811B
:1009700001969A83898329813A818F8198852817E6
:100980003907A0F28B819C81AD81BE81BC01CD0174
:100990000E9490000E94BE001A821982A0C0898124
:1009A0009A81880F991F9E012F5F3F4F820F931FDF
:1009B0000996FC0180819181FC0125813681478166
:1009C000508589819A81880F991FBE016F5F7F4F83
:1009D000860F971F0996FC0180819181FC0181811E
:1009E0009281A381B481281739074A075B0709F070
:1009F00045C089819A81880F991F9E012F5F3F4FC3
:100A0000820F931F0996FC010081118189819A81CF
:100A1000880F991F9E012F5F3F4F820F931F0996EA
:100A2000FC0180819181FC012185328589819A8137
:100A3000880F991FAE014F5F5F4F840F951F099676
:100A4000FC0180819181FC018081082E000C990BB2
:100A5000F9010995F801808389819A81880F991F8E
:100A60009E012F5F3F4F820F931F0996FC018081EB
:100A70009181FC01158216821782108689819A81E4
:100A8000880F991F9E012F5F3F4F820F931F09967A
:100A9000FC016081718189819A81880F991F9E0173
:100AA0002F5F3F4F820F931F0996FC018081918138
:100AB000FC0125813681478150858B819C81AD81E8
:100AC000BE81820F931FA41FB51FFB0185839683F0
:100AD000A783B08789819A8101969A838983298126
:100AE0003A818F8198852817390708F458CF00007C
:100AF00080911A018823E1F310921A014DCFA1E2EF
:100B00001A2EAA1BBB1BFD010DC0AA1FBB1FEE1F87
:100B1000FF1FA217B307E407F50720F0A21BB30BD2
:100B2000E40BF50B661F771F881F991F1A9469F74E
:100B300060957095809590959B01AC01BD01CF01AA
:060B40000895F894FFCFB8
:100B46000000000200000000670000000000010035
:0A0B5600000020012B0136014101CF
:00000001FF
