:100000000C9446000C9465000C9465000C946500FB
:100010000C9465000C9465000C9465000C946500CC
:100020000C9465000C9465000C9465000C946500BC
:100030000C9465000C940C010C9465000C94650004
:100040000C9465000C9465000C9465000C9465009C
:100050000C9465000C9465000C9465000C9465008C
:100060000C9465000C9465000C9465000C9465007C
:100070000C9465000C9465000C9465000C9465006C
:100080000C9465000C9465000C94650011241FBE4F
:10009000CFEFD0E4DEBFCDBF11E0A0E0B1E0E0EFF4
:1000A000F7E000E00BBF02C007900D92A431B1074A
:1000B000D9F721E0A4E1B1E001C01D92A432B2075A
:1000C000E1F70E9490020C94F6030C940000CF9389
:1000D000DF9300D01F92CDB7DEB789837B836A831D
:1000E00089818A3031F48A819B81BC018DE00E9434
:1000F000670080EC90E0FC018081882F90E08072A6
:100100009927892BB1F386EC90E02981FC012083AB
:1001100080E090E00F900F900F90DF91CF910895C5
:10012000CF93DF9300D000D0CDB7DEB769837A8359
:100130008B839C8389819A81AB81BC8180930E01E2
:1001400090930F01A0931001B093110180910E01C3
:1001500090910F01A0911001B091110180931501B0
:1001600090931601A0931701B093180100000F900F
:100170000F900F900F90DF91CF910895CF93DF9361
:10018000CDB7DEB781E890E02BE0FC01208388E862
:1001900090E02DE730E0FC01318320838FE690E092
:1001A00022E0FC01208384E890E0FC0111821082AF
:1001B00080910E0190910F01A0911001B091110159
:1001C0008093150190931601A0931701B093180125
:1001D0008FE590E02FE530E0F90120812068FC01F7
:1001E00020830000DF91CF910895CF93DF93CDB7A7
:1001F000DEB781E890E0FC0110820000DF91CF9132
:100200000895CF93DF93CDB7DEB781E080931401DB
:100210000000DF91CF9108951F920F9200905F0030
:100220000F92112400905B000F922F933F934F93F6
:100230005F936F937F938F939F93AF93BF93EF934E
:10024000FF93CF93DF93CDB7DEB7809115019091E7
:100250001601A0911701B09118010197A109B109E8
:100260008093150190931601A0931701B093180184
:100270008091150190911601A0911701B09118017C
:10028000892B8A2B8B2B91F40E94010180910E0106
:1002900090910F01A0911001B0911101809315016F
:1002A00090931601A0931701B09318010000DF91FD
:1002B000CF91FF91EF91BF91AF919F918F917F91DE
:1002C0006F915F914F913F912F910F9000925B0042
:1002D0000F9000925F000F901F901895CF93DF93BF
:1002E000CDB7DEB72C970FB6F894DEBF0FBECDBFEB
:1002F0006D837E838F83988729873A874B875C87B6
:100300008D819E81AF81B88529853A854B855C8535
:10031000BC01CD010E94D403DC01CB0189839A8307
:10032000AB83BC8389819A81AB81BC81892B8A2B69
:100330008B2B29F489859A85AB85BC8511C089856D
:100340009A85AB85BC858D839E83AF83B887898171
:100350009A81AB81BC8189879A87AB87BC87D0CFD4
:10036000BC01CD012C960FB6F894DEBF0FBECDBFF9
:10037000DF91CF910895CF93DF9300D000D0CDB718
:10038000DEB79C838B831A82198225C088E290E0B5
:1003900028E0FC01208388E290E028E230E0F901C7
:1003A00040812B813C81098002C0369527950A94B3
:1003B000E2F72170242BFC01208388E290E028E200
:1003C00030E0F90120812260FC01208389819A813B
:1003D00001969A83898389819A814097BCF288E249
:1003E00090E028E230E0F90120812460FC012083C4
:1003F00088E290E0FC01108200000F900F900F90B7
:100400000F90DF91CF910895CF93DF9300D01F928B
:10041000CDB7DEB79B838A8380E290E0FC018081C8
:100420008095837089838A819B818230910509F44C
:100430004EC0833091052CF4009751F0019791F153
:1004400063C08330910529F1049709F454C05CC05E
:100450008981833029F483E090E09B838A8358C0AC
:100460008981823029F481E090E09B838A8350C0A7
:100470008981813029F482E090E09B838A8348C09F
:1004800080911201909113010E94BB011B821A827C
:100490003FC0109213011092120184E090E09B8300
:1004A0008A8336C080911201909113018F3F9F4043
:1004B00048F48091120190911301019690931301D9
:1004C0008093120184E090E09B838A8321C0809115
:1004D000120190911301892B49F0809112019091A2
:1004E00013010197909313018093120184E090E02F
:1004F0009B838A830DC08981813049F08981823054
:1005000031F01B821A8203C01B821A8201C00000D4
:100510008A819B810F900F900F90DF91CF9108956A
:100520000F931F93CF93DF93CDB7DEB72B970FB603
:10053000F894DEBF0FBECDBF87E290E02FEFFC0145
:10054000208388E290E0FC01108281E290E0FC01CF
:10055000108282E290E02FEFFC01208389E191E09C
:100560009B878A8781E090E098878F838FEF8987C8
:100570008985809319018EE190E0A0E0B0E080933E
:100580001A0190931B01A0931C01B0931D0180914F
:100590001A0190911B01A0911C01B0911D01809343
:1005A0001E0190931F01A0932001B093210184E0CC
:1005B00092E090932301809322018A859B85FC0120
:1005C00081819281A381B4818B839C83AD83BE831F
:1005D0001A82198225C089819A81880F991F9E01EC
:1005E0002F5F3F4F820F931F0996FC0180819181FD
:1005F000FC0121813281438154818B819C81AD81B9
:10060000BE81BC01CD010E946E01DC01CB018B8358
:100610009C83AD83BE8389819A8101969A83898365
:1006200029813A818F81988528173907A0F28B811B
:100630009C81AD81BE81BC01CD010E9490000E94D1
:10064000BE001A821982A0C089819A81880F991FE1
:100650009E012F5F3F4F820F931F0996FC018081FF
:100660009181FC01258136814781508589819A815C
:10067000880F991FBE016F5F7F4F860F971F0996E6
:10068000FC0180819181FC0181819281A381B481EF
:10069000281739074A075B0709F045C089819A8105
:1006A000880F991F9E012F5F3F4F820F931F09965E
:1006B000FC010081118189819A81880F991F9E0117
:1006C0002F5F3F4F820F931F0996FC01808191811C
:1006D000FC012185328589819A81880F991FAE019D
:1006E0004F5F5F4F840F951F0996FC0180819181B8
:1006F000FC018081082E000C990BF9010995F80185
:10070000808389819A81880F991F9E012F5F3F4FB7
:10071000820F931F0996FC0180819181FC01158253
:1007200016821782108689819A81880F991F9E01EF
:100730002F5F3F4F820F931F0996FC0160817181EB
:1007400089819A81880F991F9E012F5F3F4F820FE9
:10075000931F0996FC0180819181FC0125813681DE
:10076000478150858B819C81AD81BE81820F931F13
:10077000A41FB51FFB0185839683A783B08789815A
:100780009A8101969A83898329813A818F819885FC
:100790002817390708F458CF0000809114018823E6
:1007A000E1F3109214014DCFA1E21A2EAA1BBB1B3C
:1007B000FD010DC0AA1FBB1FEE1FFF1FA217B3072D
:1007C000E407F50720F0A21BB30BE40BF50B661F43
:1007D000771F881F991F1A9469F760957095809507
:1007E00090959B01AC01BD01CF010895F894FFCF16
:1007F000000000020000000067000000000001008F
:040800000000FF02F3
:00000001FF
