:100000000C944F000C946E000C946E000C946E00D7
:100010000C946E000C946E000C946E000C946E00A8
:100020000C946E000C946E000C946E000C946E0098
:100030000C946E000C9415010C946E000C946E00E0
:100040000C946E000C946E000C946E000C946E0078
:100050000C946E000C946E000C946E000C946E0068
:100060000C946E000C946E000C946E000C946E0058
:100070000C946E000C946E000C946E000C946E0048
:100080000C946E000C946E000C946E004902B20247
:10009000D002EE020C038C029F022A0333031124C8
:1000A0001FBECFEFD0E4DEBFCDBF11E0A0E0B1E0D6
:1000B000ECEAFDE000E00BBF02C007900D92AA3110
:1000C000B107D9F721E0AAE1B1E001C01D92AD343A
:1000D000B207E1F70E94F1040C94D4060C940000DE
:1000E000CF93DF9300D01F92CDB7DEB789837B8398
:1000F0006A8389818A3031F48A819B81BC018DE0D9
:100100000E94700080EC90E0FC018081882F90E0DC
:1001100080729927892BB1F386EC90E02981FC014C
:10012000208380E090E00F900F900F90DF91CF91AF
:100130000895CF93DF9300D000D0CDB7DEB76983A9
:100140007A838B839C8389819A81AB81BC818093E4
:100150000E0190930F01A0931001B09311018091B3
:100160000E0190910F01A0911001B09111018093A7
:100170001B0190931C01A0931D01B0931E01000070
:100180000F900F900F900F90DF91CF910895CF9324
:10019000DF93CDB7DEB781E890E02BE0FC01208350
:1001A00088E890E02DE730E0FC01318320838FE682
:1001B00090E022E0FC01208384E890E0FC011182C1
:1001C000108280910E0190910F01A0911001B091C9
:1001D000110180931B0190931C01A0931D01B0930A
:1001E0001E018FE590E02FE530E0F90120812068C5
:1001F000FC0120830000DF91CF910895CF93DF931E
:10020000CDB7DEB781E890E0FC0110820000DF91FD
:10021000CF910895CF93DF93CDB7DEB781E0809380
:100220001A010000DF91CF9108951F920F92009064
:100230005F000F92112400905B000F922F933F9369
:100240004F935F936F937F938F939F93AF93BF93DE
:10025000EF93FF93CF93DF93CDB7DEB780911B0170
:1002600090911C01A0911D01B0911E010197A1095F
:10027000B10980931B0190931C01A0931D01B093C1
:100280001E0180911B0190911C01A0911D01B09154
:100290001E01892B8A2B8B2B91F40E940A018091DD
:1002A0000E0190910F01A0911001B0911101809366
:1002B0001B0190931C01A0931D01B0931E0100002F
:1002C000DF91CF91FF91EF91BF91AF919F918F916E
:1002D0007F916F915F914F913F912F910F9000927D
:1002E0005B000F9000925F000F901F901895CF93C6
:1002F000DF93CDB7DEB72C970FB6F894DEBF0FBEF5
:10030000CDBF6D837E838F83988729873A874B87FC
:100310005C878D819E81AF81B88529853A854B8523
:100320005C85BC01CD010E94A906DC01CB0189835B
:100330009A83AB83BC8389819A81AB81BC81892BF1
:100340008A2B8B2B29F489859A85AB85BC8511C0B6
:1003500089859A85AB85BC858D839E83AF83B8875D
:1003600089819A81AB81BC8189879A87AB87BC8759
:10037000D0CFBC01CD012C960FB6F894DEBF0FBED6
:10038000CDBFDF91CF910895CF93DF9300D000D000
:10039000CDB7DEB78B836C831A82198230C08C8113
:1003A000813031F488E290E028E0FC01208305C030
:1003B00088E290E020E2FC01208388E290E028E2DD
:1003C00030E0F9012081422F2B81222F30E009807B
:1003D00002C0359527950A94E2F72170242BFC0181
:1003E000208388E290E028E230E0F9012081226059
:1003F000FC01208389819A8101969A83898389816E
:100400009A81089764F28C81813051F488E290E0FF
:1004100028E230E0F90120812460FC01208309C03A
:1004200088E290E028E230E0F90120812061FC01BF
:10043000208388E290E0FC01108200000F900F9072
:100440000F900F90DF91CF910895CF93DF9300D05D
:100450001F92CDB7DEB79B838A8380E290E0FC01D8
:10046000808180958F7089838A819B81092E000C01
:10047000AA0BBB0B40E050E028E030E0841B950B5A
:100480002817390708F4F8C08A5B9F4FFC010C94C9
:10049000CB0680911F01882321F461E080E00E9457
:1004A000C40180912001882321F462E080E00E9451
:1004B000C4018981833029F485E090E09B838A839D
:1004C000E1C08981823029F481E090E09B838A83B6
:1004D000D9C08981813029F483E090E09B838A83AD
:1004E000D1C089818C3029F486E090E09B838A8397
:1004F000C9C08981883029F482E090E09B838A8397
:10050000C1C08981843029F484E090E09B838A8390
:10051000B9C01B821A82B6C080911F01882321F4C2
:1005200081E080931F0106C010921F0161E080E00E
:100530000E94C40187E090E09B838A83A3C08091DE
:100540002001882321F481E08093200106C01092CD
:10055000200162E080E00E94C40188E090E09B837B
:100560008A8390C080911F01833020F081E08093C6
:100570001F0109C080911F01882329F080911F016C
:100580008F5F80931F018981833029F485E090E09B
:100590009B838A8377C087E090E09B838A8372C0C5
:1005A00080912001833020F081E08093200109C0F8
:1005B00080912001882329F0809120018F5F809312
:1005C00020018981833029F486E090E09B838A832F
:1005D00059C088E090E09B838A8354C080911F01BA
:1005E000823020F483E080931F0109C080911F01B5
:1005F000882329F080911F01815080931F018981F8
:10060000833029F485E090E09B838A833BC087E0B8
:1006100090E09B838A8336C080912001823020F451
:1006200083E08093200109C080912001882329F074
:10063000809120018150809320018981833029F4A9
:1006400086E090E09B838A831DC088E090E09B83D6
:100650008A8318C08981813091F08981823079F054
:100660001B821A820CC08981843059F089818830BC
:1006700041F01B821A8205C01B821A8203C000004F
:1006800001C000008A819B810F900F900F90DF9135
:10069000CF910895CF93DF9300D0CDB7DEB79A8383
:1006A000898389819A8182309105D1F183309105C6
:1006B0002CF4009759F00197F1F06FC08330910549
:1006C00009F443C0049709F455C067C080911F0125
:1006D000813021F461E081E80E94C4018091200111
:1006E000813021F462E081E80E94C40181E090E061
:1006F0009A83898355C080911F01813021F461E084
:1007000082E40E94C40180912001813021F462E0E2
:1007100082E40E94C40182E090E09A83898340C011
:1007200080911F01813021F461E084E20E94C401C4
:1007300080912001813021F462E084E20E94C401B2
:1007400083E090E09A8389832BC080911F018130E0
:1007500021F461E088E10E94C40180912001813090
:1007600021F462E088E10E94C40184E090E09A8371
:10077000898316C080911F01813021F461E080E0FF
:100780000E94C40180912001813021F462E080E068
:100790000E94C4011A82198203C01A8219820000C1
:1007A00089819A810F900F90DF91CF910895CF9317
:1007B000DF9300D0CDB7DEB79A83898389819A8190
:1007C00082309105D1F1833091052CF4009759F0D6
:1007D0000197F1F06FC08330910509F443C004978D
:1007E00009F455C067C080911F01823021F461E097
:1007F0008FEF0E94C40180912001823021F462E0D9
:100800008FEF0E94C40181E090E09A83898355C0F4
:1008100080911F01823021F461E08AEA0E94C401C4
:1008200080912001823021F462E08AEA0E94C401B2
:1008300082E090E09A83898340C080911F018230DA
:1008400021F461E088E80E94C40180912001823097
:1008500021F462E088E80E94C40183E090E09A837A
:1008600089832BC080911F01823021F461E080E8F0
:100870000E94C40180912001823021F462E080E86E
:100880000E94C40184E090E09A83898316C080911D
:100890001F01823021F461E080E00E94C401809158
:1008A0002001823021F462E080E00E94C4011A82BB
:1008B000198203C01A821982000089819A810F90DF
:1008C0000F90DF91CF910895CF93DF9300D0CDB7F4
:1008D000DEB79A83898389819A8182309105D1F12B
:1008E000833091052CF4009759F00197F1F06FC017
:1008F0008330910509F443C0049709F455C067C0DB
:1009000080911F01833021F461E080EC0E94C401DA
:1009100080912001833021F462E080EC0E94C401C8
:1009200081E090E09A83898355C080911F018330D4
:1009300021F461E088E10E94C401809120018330AC
:1009400021F462E088E10E94C40182E090E09A8391
:10095000898340C080911F01833021F461E083E0EE
:100960000E94C40180912001833021F462E083E081
:100970000E94C40183E090E09A8389832BC0809118
:100980001F01833021F461E086E00E94C401809160
:100990002001833021F462E086E00E94C40184E0FB
:1009A00090E09A83898316C080911F01833021F4DF
:1009B00061E080E60E94C40180912001833021F42F
:1009C00062E080E60E94C4011A82198203C01A8282
:1009D0001982000089819A810F900F90DF91CF9149
:1009E00008950F931F93CF93DF93CDB7DEB7619731
:1009F0000FB6F894DEBF0FBECDBF87E290E02FEFB9
:100A0000FC01208388E290E0FC01108281E290E00A
:100A1000FC01108282E290E02FEFFC01208388E04D
:100A2000E2E1F1E0DE011A9601900D928A95E1F77C
:100A300084E090E098878F838FEF89878985809302
:100A400021018EE190E0A0E0B0E08093220190933C
:100A50002301A0932401B09325018091220190915C
:100A60002301A0912401B091250180932601909348
:100A70002701A0932801B093290185E292E0909389
:100A80002B0180932A01898580932C0184E690E0D4
:100A9000A0E0B0E080932D0190932E01A0932F0150
:100AA000B093300180912D0190912E01A0912F01E2
:100AB000B09130018093310190933201A0933301C2
:100AC000B09334018AE493E090933601809335012A
:100AD00089858093370184E690E0A0E0B0E08093C0
:100AE000380190933901A0933A01B0933B01809172
:100AF000380190913901A0913A01B0913B01809366
:100B00003C0190933D01A0933E01B0933F0187EDDE
:100B100093E0909341018093400189858093420145
:100B200084E690E0A0E0B0E080934301909344011C
:100B3000A0934501B09346018091430190914401F7
:100B4000A0914501B09146018093470190934801DF
:100B5000A0934901B0934A0184E694E090934C013C
:100B600080934B018A859B85FC0181819281A381C1
:100B7000B4818B839C83AD83BE831A82198225C086
:100B800089819A81880F991F9E012F5F3F4F820FA5
:100B9000931F0996FC0180819181FC0121813281A2
:100BA000438154818B819C81AD81BE81BC01CD018B
:100BB0000E947701DC01CB018B839C83AD83BE83D4
:100BC00089819A8101969A83898329813A818F81CB
:100BD000988528173907A0F28B819C81AD81BE8151
:100BE000BC01CD010E9499000E94C7001A8219829F
:100BF000A0C089819A81880F991F9E012F5F3F4F66
:100C0000820F931F0996FC0180819181FC0125814F
:100C100036814781508589819A81880F991FBE014D
:100C20006F5F7F4F860F971F0996FC01808191812E
:100C3000FC0181819281A381B481281739074A0779
:100C40005B0709F045C089819A81880F991F9E0131
:100C50002F5F3F4F820F931F0996FC010081118186
:100C600089819A81880F991F9E012F5F3F4F820FC4
:100C7000931F0996FC0180819181FC0121853285B9
:100C800089819A81880F991FAE014F5F5F4F840F52
:100C9000951F0996FC0180819181FC018081082EBD
:100CA000000C990BF9010995F801808389819A81DB
:100CB000880F991F9E012F5F3F4F820F931F099648
:100CC000FC0180819181FC011582168217821086B9
:100CD00089819A81880F991F9E012F5F3F4F820F54
:100CE000931F0996FC016081718189819A81880F27
:100CF000991F9E012F5F3F4F820F931F0996FC01A2
:100D000080819181FC0125813681478150858B81CD
:100D10009C81AD81BE81820F931FA41FB51FFB0173
:100D200085839683A783B08789819A8101969A8368
:100D3000898329813A818F8198852817390708F49A
:100D400058CF000080911A018823E1F310921A0114
:100D50004DCFA1E21A2EAA1BBB1BFD010DC0AA1F7D
:100D6000BB1FEE1FFF1FA217B307E407F50720F014
:100D7000A21BB30BE40BF50B661F771F881F991F8F
:100D80001A9469F760957095809590959B01AC01D8
:100D9000BD01CF010895EE0FFF1F0024001C0BBE04
:0C0DA0000790F691E02D0994F894FFCF25
:100DAC0000000002000000007000000000000100C4
:0A0DBC00000021012C013701420163
:00000001FF
