:100000000C9446000C9465000C9465000C946500FB
:100010000C9465000C9465000C9465000C946500CC
:100020000C9465000C9465000C9465000C946500BC
:100030000C9465000C940C010C9465000C94650004
:100040000C9465000C9465000C9465000C9465009C
:100050000C9465000C9465000C9465000C9465008C
:100060000C9465000C9465000C9465000C9465007C
:100070000C9465000C9465000C9465000C9465006C
:100080000C9465000C9465000C94650011241FBE4F
:10009000CFEFD0E4DEBFCDBF11E0A0E0B1E0E8ECEF
:1000A000FAE000E00BBF02C007900D92AE31B1073D
:1000B000D9F721E0AEE1B1E001C01D92A534B2074D
:1000C000E1F70E94AD030C9462050C940000CF93FD
:1000D000DF9300D01F92CDB7DEB789837B836A831D
:1000E00089818A3031F48A819B81BC018DE00E9434
:1000F000670080EC90E0FC018081882F90E08072A6
:100100009927892BB1F386EC90E02981FC012083AB
:1001100080E090E00F900F900F90DF91CF910895C5
:10012000CF93DF9300D000D0CDB7DEB769837A8359
:100130008B839C8389819A81AB81BC8180930E01E2
:1001400090930F01A0931001B093110180910E01C3
:1001500090910F01A0911001B091110180931F01A6
:1001600090932001A0932101B093220100000F90F1
:100170000F900F900F90DF91CF910895CF93DF9361
:10018000CDB7DEB781E890E02BE0FC01208388E862
:1001900090E02DE730E0FC01318320838FE690E092
:1001A00022E0FC01208384E890E0FC0111821082AF
:1001B00080910E0190910F01A0911001B091110159
:1001C00080931F0190932001A0932101B0932201FD
:1001D0008FE590E02FE530E0F90120812068FC01F7
:1001E00020830000DF91CF910895CF93DF93CDB7A7
:1001F000DEB781E890E0FC0110820000DF91CF9132
:100200000895CF93DF93CDB7DEB781E080931E01D1
:100210000000DF91CF9108951F920F9200905F0030
:100220000F92112400905B000F922F933F934F93F6
:100230005F936F937F938F939F93AF93BF93EF934E
:10024000FF93CF93DF93CDB7DEB780911F019091DD
:100250002001A0912101B09122010197A109B109CA
:1002600080931F0190932001A0932101B09322015C
:1002700080911F0190912001A0912101B091220154
:10028000892B8A2B8B2B91F40E94010180910E0106
:1002900090910F01A0911001B091110180931F0165
:1002A00090932001A0932101B09322010000DF91DF
:1002B000CF91FF91EF91BF91AF919F918F917F91DE
:1002C0006F915F914F913F912F910F9000925B0042
:1002D0000F9000925F000F901F901895CF93DF93BF
:1002E000CDB7DEB72C970FB6F894DEBF0FBECDBFEB
:1002F0006D837E838F83988729873A874B875C87B6
:100300008D819E81AF81B88529853A854B855C8535
:10031000BC01CD010E944005DC01CB0189839A8399
:10032000AB83BC8389819A81AB81BC81892B8A2B69
:100330008B2B29F489859A85AB85BC8511C089856D
:100340009A85AB85BC858D839E83AF83B887898171
:100350009A81AB81BC8189879A87AB87BC87D0CFD4
:10036000BC01CD012C960FB6F894DEBF0FBECDBFF9
:10037000DF91CF910895CF93DF9300D000D0CDB718
:10038000DEB79C838B831A82198225C088E290E0B5
:1003900028E0FC01208388E290E028E230E0F901C7
:1003A00040812B813C81098002C0369527950A94B3
:1003B000E2F72170242BFC01208388E290E028E200
:1003C00030E0F90120812260FC01208389819A813B
:1003D00001969A83898389819A814097BCF288E249
:1003E00090E028E230E0F90120812460FC012083C4
:1003F00088E290E0FC01108200000F900F900F90B7
:100400000F90DF91CF910895CF93DF9300D000D06C
:100410001F92CDB7DEB79D838C8380E290E0FC0114
:10042000808180958470898380E290E0FC018081E6
:10043000809582708A8380E290E0FC018081882F21
:1004400090E08170992721E0892B09F020E02B832F
:100450008C819D818230910509F45AC083309105C9
:100460002CF4009779F00197E9F1B8C08430910538
:1004700009F484C0843091050CF45FC0059709F439
:100480009DC0ACC08981882341F08A81882329F4EA
:1004900081E090E09D838C8324C08981882341F092
:1004A0008A81882329F083E090E09D838C8319C0A2
:1004B0008B81882341F08A81882329F482E090E0AF
:1004C0009D838C830EC08B81882341F08A81882391
:1004D00029F084E090E09D838C8303C01D821C8200
:1004E00080C07FC0809112019091130181159048C6
:1004F00051F08091120190911301880F991F9093F0
:1005000013018093120185E090E09D838C8369C084
:100510008091120190911301019751F08091120185
:1005200090911301969587959093130180931201F2
:1005300085E090E09D838C8354C08091120190915E
:1005400013018130984078F4809112019091130149
:1005500082959295907F9827807F9827909313019A
:100560008093120106C080E090E89093130180937D
:10057000120185E090E09D838C8333C0809112014D
:1005800090911301409778F080911201909113019E
:10059000929582958F7089279F7089279093130178
:1005A0008093120106C081E090E090931301809344
:1005B000120185E090E09D838C8313C0898188239C
:1005C00049F48A81882331F48B81882319F41D82B0
:1005D0001C8204C085E090E09D838C831D821C8278
:1005E00000008C819D810F900F900F900F900F90C5
:1005F000DF91CF910895CF93DF9300D0CDB7DEB7D1
:100600009A83898389819A81009719F00197D1F0A3
:1006100031C080911401909115018115904869F0C5
:100620008091140190911501880F991F90931501E5
:10063000809314011A82198220C081E090E09A838D
:1006400089831BC08091140190911501019779F065
:1006500080911401909115019695879590931501BD
:100660008093140181E090E09A83898306C01A8206
:10067000198203C01A821982000089819A810F9021
:100680000F90DF91CF910895CF93DF9300D000D0EA
:10069000CDB7DEB79C838B838B819C81009719F04B
:1006A000019721F14EC020911201309113018091E8
:1006B0001401909115012817390799F02091120122
:1006C000309113018091140190911501822B932B8D
:1006D0009A83898389819A810E94BB011C821B8233
:1006E00033C081E090E09C838B832EC080912301F6
:1006F0008032B0F480911601909117010E94BB01E5
:100700008091160190911701809590959093170113
:1007100080931601809123018F5F8093230114C081
:1007200080E090E8909313018093120181E090E0C3
:100730009093150180931401109223011C821B8257
:1007400003C01C821B8200008B819C810F900F9044
:100750000F900F90DF91CF9108950F931F93CF9338
:10076000DF93CDB7DEB72F970FB6F894DEBF0FBE7D
:10077000CDBF87E290E02FEFFC01208388E290E07C
:10078000FC01108281E290E0FC01108282E290E0A4
:100790002FEFFC01208386E0E8E1F1E0DE011A960C
:1007A00001900D928A95E1F783E090E098878F831E
:1007B0008FEF898789858093240186E490E0A0E00B
:1007C000B0E08093250190932601A0932701B09378
:1007D00028018091250190912601A0912701B091D7
:1007E00028018093290190932A01A0932B01B093B3
:1007F0002C0184E092E090932E0180932D01898555
:1008000080932F0184EF91E0A0E0B0E0809330016D
:1008100090933101A0933201B09333018091300164
:1008200090913101A0913201B09133018093340154
:1008300090933501A0933601B09337018BEF92E08E
:100840009093390180933801898580933A0182E33E
:1008500090E0A0E0B0E080933B0190933C01A09336
:100860003D01B0933E0180913B0190913C01A091EC
:100870003D01B0913E0180933F0190934001A093D0
:100880004101B093420184E493E09093440180934A
:1008900043018A859B85FC0181819281A381B4817A
:1008A0008B839C83AD83BE831A82198225C0898184
:1008B0009A81880F991F9E012F5F3F4F820F931FD0
:1008C0000996FC0180819181FC0121813281438163
:1008D00054818B819C81AD81BE81BC01CD010E9480
:1008E0006E01DC01CB018B839C83AD83BE83898148
:1008F0009A8101969A83898329813A818F8198858B
:1009000028173907A0F28B819C81AD81BE81BC0183
:10091000CD010E9490000E94BE001A821982A0C0E0
:1009200089819A81880F991F9E012F5F3F4F820F07
:10093000931F0996FC0180819181FC0125813681FC
:100940004781508589819A81880F991FBE016F5F09
:100950007F4F860F971F0996FC0180819181FC01D2
:1009600081819281A381B481281739074A075B07E7
:1009700009F045C089819A81880F991F9E012F5FD8
:100980003F4F820F931F0996FC01008111818981DD
:100990009A81880F991F9E012F5F3F4F820F931FEF
:1009A0000996FC0180819181FC0121853285898134
:1009B0009A81880F991FAE014F5F5F4F840F951F7B
:1009C0000996FC0180819181FC018081082E000C38
:1009D000990BF9010995F801808389819A81880F23
:1009E000991F9E012F5F3F4F820F931F0996FC01B5
:1009F00080819181FC01158216821782108689817F
:100A00009A81880F991F9E012F5F3F4F820F931F7E
:100A10000996FC016081718189819A81880F991FF3
:100A20009E012F5F3F4F820F931F0996FC0180812B
:100A30009181FC0125813681478150858B819C8184
:100A4000AD81BE81820F931FA41FB51FFB0185835B
:100A50009683A783B08789819A8101969A83898337
:100A600029813A818F8198852817390708F458CF52
:100A7000000080911E018823E1F310921E014DCFEA
:100A8000A1E21A2EAA1BBB1BFD010DC0AA1FBB1F92
:100A9000EE1FFF1FA217B307E407F50720F0A21B04
:100AA000B30BE40BF50B661F771F881F991F1A9471
:100AB00069F760957095809590959B01AC01BD019B
:080AC000CF010895F894FFCF67
:100AC80000000002000000006700000000000100B4
:0E0AD800000000800100FFFF24012F013A0101
:00000001FF
